{
  "_format": "hh-sol-artifact-1",
  "contractName": "Lottery",
  "sourceName": "contracts/Lottery.sol",
  "abi": [
    {
      "inputs": [],
      "stateMutability": "nonpayable",
      "type": "constructor"
    },
    {
      "inputs": [],
      "name": "chooseWinner",
      "outputs": [],
      "stateMutability": "nonpayable",
      "type": "function"
    },
    {
      "inputs": [
        {
          "internalType": "uint256",
          "name": "slot",
          "type": "uint256"
        }
      ],
      "name": "getMap",
      "outputs": [
        {
          "internalType": "address",
          "name": "",
          "type": "address"
        }
      ],
      "stateMutability": "view",
      "type": "function"
    },
    {
      "inputs": [],
      "name": "getSlotId",
      "outputs": [
        {
          "internalType": "uint256",
          "name": "",
          "type": "uint256"
        }
      ],
      "stateMutability": "view",
      "type": "function"
    },
    {
      "inputs": [],
      "name": "makeBid",
      "outputs": [],
      "stateMutability": "payable",
      "type": "function"
    },
    {
      "inputs": [],
      "name": "refresh",
      "outputs": [],
      "stateMutability": "nonpayable",
      "type": "function"
    }
  ],
  "bytecode": "0x60806040526000805534801561001457600080fd5b5033600160006101000a81548173ffffffffffffffffffffffffffffffffffffffff021916908373ffffffffffffffffffffffffffffffffffffffff160217905550610678806100656000396000f3fe60806040526004361061004a5760003560e01c8063025799f01461004f57806365868d601461008c578063cd38aa87146100b7578063f30e3658146100ce578063f8ac93e8146100d8575b600080fd5b34801561005b57600080fd5b5061007660048036038101906100719190610386565b6100ef565b60405161008391906103f4565b60405180910390f35b34801561009857600080fd5b506100a161012c565b6040516100ae919061041e565b60405180910390f35b3480156100c357600080fd5b506100cc610135565b005b6100d66101e0565b005b3480156100e457600080fd5b506100ed610297565b005b60006002600083815260200190815260200160002060009054906101000a900473ffffffffffffffffffffffffffffffffffffffff169050919050565b60008054905090565b61013e336102b7565b6000600260006001600054610151610314565b61015b9190610468565b61016591906104c8565b815260200190815260200160002060009054906101000a900473ffffffffffffffffffffffffffffffffffffffff1690508073ffffffffffffffffffffffffffffffffffffffff166108fc479081150290604051600060405180830381858888f193505050501580156101dc573d6000803e3d6000fd5b5050565b670429d069189e000034101561022b576040517f08c379a00000000000000000000000000000000000000000000000000000000081526004016102229061057b565b60405180910390fd5b60008081548092919061023d9061059b565b919050555033600260008054815260200190815260200160002060006101000a81548173ffffffffffffffffffffffffffffffffffffffff021916908373ffffffffffffffffffffffffffffffffffffffff160217905550565b6103e847106102a557600080fd5b6102ae336102b7565b60008081905550565b600160009054906101000a900473ffffffffffffffffffffffffffffffffffffffff1673ffffffffffffffffffffffffffffffffffffffff168173ffffffffffffffffffffffffffffffffffffffff161461031157600080fd5b50565b6000444260005460405160200161032d93929190610605565b6040516020818303038152906040528051906020012060001c905090565b600080fd5b6000819050919050565b61036381610350565b811461036e57600080fd5b50565b6000813590506103808161035a565b92915050565b60006020828403121561039c5761039b61034b565b5b60006103aa84828501610371565b91505092915050565b600073ffffffffffffffffffffffffffffffffffffffff82169050919050565b60006103de826103b3565b9050919050565b6103ee816103d3565b82525050565b600060208201905061040960008301846103e5565b92915050565b61041881610350565b82525050565b6000602082019050610433600083018461040f565b92915050565b7f4e487b7100000000000000000000000000000000000000000000000000000000600052601260045260246000fd5b600061047382610350565b915061047e83610350565b92508261048e5761048d610439565b5b828206905092915050565b7f4e487b7100000000000000000000000000000000000000000000000000000000600052601160045260246000fd5b60006104d382610350565b91506104de83610350565b9250827fffffffffffffffffffffffffffffffffffffffffffffffffffffffffffffffff0382111561051357610512610499565b5b828201905092915050565b600082825260208201905092915050565b7f596f757220626964206973206e6f74206869676820656e6f7567680000000000600082015250565b6000610565601b8361051e565b91506105708261052f565b602082019050919050565b6000602082019050818103600083015261059481610558565b9050919050565b60006105a682610350565b91507fffffffffffffffffffffffffffffffffffffffffffffffffffffffffffffffff8214156105d9576105d8610499565b5b600182019050919050565b6000819050919050565b6105ff6105fa82610350565b6105e4565b82525050565b600061061182866105ee565b60208201915061062182856105ee565b60208201915061063182846105ee565b60208201915081905094935050505056fea26469706673582212203f5a99771c1e2ee5177da83928950e8193bca0840c60b2e7c627e2017dfb1b3264736f6c63430008090033",
  "linkReferences": {},
  "deployedLinkReferences": {}
}